S01700004457494E5F4C45445F427574746F6E2E73726563CC
S11300000C9434000C943E000C943E000C943E007E
S11300100C943E000C943E000C943E000C943E0064
S11300200C943E000C943E000C943E000C943E0054
S11300300C943E000C943E000C943E000C943E0044
S11300400C943E000C943E000C943E000C943E0034
S11300500C943E000C943E000C943E000C943E0024
S11300600C943E000C943E0011241FBECFEFD8E048
S1130070DEBFCDBF0E9457000C9481000C94000099
S113008082E08093C00080E18093C10086E0809389
S1130090C20080E190E09093C5008093C40008956D
S11300A08091C0008823E4F78091C6000895CF931F
S11300B0DF93CDB7DEB729970FB6F894DEBF0FBE36
S11300C0CDBF0E9440008FEF84B915B810E01930FD
S11300D068F4E12EF12C0E945000E1E0F0E0EC0F16
S11300E0FD1FEE0DFF1D80831F5FF1CF89858130D9
S11300F021F485B1826085B9E9CF85B18D7F85B959
S1090100E5CFF894FFCFE7
S9030000FC
